:100000000C9464000C948C000C948C000C947E076F
:100010000C947E070C947E070C948C000C94820642
:100020000C948C000C948C000C948C000C948C0020
:100030000C948C000C948C000C948C000C948C0010
:100040000C9434070C948C000C9402070C94DC067E
:100050000C948C000C948C000C948C000C948C00F0
:100060000C948C000C948C000000000024002700ED
:100070002A0002000000080002010000030407003B
:1000800000000000000000000000002300260029FE
:100090000000000000250028002B000404040404D4
:1000A0000404040202020202020303030303030125
:1000B00002040810204080010204081020010204FC
:1000C00008102000F607C60C11241FBECFEFD8E0A1
:1000D000DEBFCDBF23E0A0E2B2E001C01D92AB3491
:1000E000B207E1F712E0A0E0B1E0E6E1FFE102C013
:1000F00005900D92A032B107D9F710E0C3E6D0E029
:1001000004C02197FE010E947D0DC236D107C9F7B8
:100110000E94A1080C947E0F0C9400000895AF92E9
:10012000BF92CF92DF92EF92FF920F931F93CF93E4
:10013000DF936C017B018B01040F151FEB015E0146
:10014000AE18BF08C017D10759F06991D601ED91DB
:10015000FC910190F081E02DC6010995892B79F77A
:10016000C501DF91CF911F910F91FF90EF90DF902C
:10017000CF90BF90AF900895FC01538D448D252FF3
:1001800030E0842F90E0821B930B541710F0CF9631
:10019000089501970895FC01918D828D981761F063
:1001A000A28DAE0FBF2FB11D5D968C91928D9F5F7A
:1001B0009F73928F90E008958FEF9FEF0895FC0159
:1001C000918D828D981731F0828DE80FF11D858D0C
:1001D00090E008958FEF9FEF0895FC01918D228D9F
:1001E000892F90E0805C9F4F821B91098F73992724
:1001F00008958BE892E00E94ED0021E0892B09F43C
:1002000020E0822F089580E090E0892B29F00E9461
:10021000F90081110C9400000895FC01A48DA80F31
:10022000B92FB11DA35ABF4F2C91848D90E0019638
:100230008F739927848FA689B7892C93A089B18958
:100240008C91837080648C93938D848D981306C0F9
:100250000288F389E02D80818F7D80830895EF925D
:10026000FF920F931F93CF93DF93EC0181E0888F70
:100270009B8D8C8D98131AC0E889F989808185FF40
:1002800015C09FB7F894EE89FF896083E889F989E2
:1002900080818370806480839FBF81E090E0DF91E4
:1002A000CF911F910F91FF90EF900895F62E0B8D37
:1002B00010E00F5F1F4F0F731127E02E8C8D8E11F2
:1002C0000CC00FB607FCFACFE889F989808185FF59
:1002D000F5CFCE010E940D01F1CFEB8DEC0FFD2F7C
:1002E000F11DE35AFF4FF0829FB7F8940B8FEA8914
:1002F000FB8980818062CFCFCF93DF93EC01888D23
:100300008823B9F0AA89BB89E889F9898C9185FD90
:1003100003C0808186FD0DC00FB607FCF7CF8C911E
:1003200085FFF2CF808185FFEDCFCE010E940D01C8
:10033000E9CFDF91CF910895833081F028F48130A7
:1003400099F08230A9F008958730A9F08830C9F07B
:100350008430B1F4809180008F7D03C08091800053
:100360008F7780938000089584B58F7784BD08953A
:1003700084B58F7DFBCF8091B0008F778093B000E4
:1003800008958091B0008F7DF9CF1F93CF93DF93B5
:10039000282F30E0F901ED58FF4F8491F901E15524
:1003A000FF4FD491F901E556FF4FC491CC23A9F03A
:1003B000162F81110E949C01EC2FF0E0EE0FFF1F21
:1003C000EF56FF4FA591B4918FB7F894EC911111AE
:1003D00008C0D095DE23DC938FBFDF91CF911F91B2
:1003E0000895DE2BF8CF9091010189130BC0E2E74D
:1003F000F0E0E4919FEF90930101E13049F028F0A3
:10040000E23061F060E00C94C50110926E00FACF0A
:1004100090916F009D7F90936F00F4CF909170004A
:100420009D7F9093700091E09093B0009091B10007
:10043000987F94609093B1001092B300E3CFCF9374
:10044000DF9390E0FC01E155FF4F249185569F4FCB
:10045000FC0184918823D1F090E0880F991FFC0162
:10046000E859FF4FA591B491FC01EF56FF4FC5919C
:10047000D49161110EC09FB7F8948C91E22FE09552
:100480008E238C932881E223E8839FBFDF91CF9155
:1004900008958FB7F894EC91E22BEC938FBFF6CFD1
:1004A0001F93CF93DF93182FEB0161E00E941F028F
:1004B000209739F460E0812FDF91CF911F910C9448
:1004C000C501CF3FD10511F461E0F5CFE12FF0E098
:1004D000ED58FF4FE491E33031F140F4E130B1F0F9
:1004E000E230E1F0C038D1057CF7E4CFE73029F104
:1004F000E83059F1E430B1F7809180008062809358
:100500008000D0938B00C0938A0004C084B58068BB
:1005100084BDC7BDDF91CF911F91089584B58062DE
:1005200084BDC8BDF7CF8091800080688093800033
:10053000D0938900C0938800EDCF8091B00080688F
:100540008093B000C093B300E5CF8091B00080628B
:100550008093B000C093B400DDCF3FB7F894809192
:10056000730290917402A0917502B091760226B543
:10057000A89B05C02F3F19F00196A11DB11D3FBFDB
:10058000BA2FA92F982F8827BC01CD01620F711DAA
:10059000811D911D42E0660F771F881F991F4A95A4
:1005A000D1F708958F929F92AF92BF92CF92DF9230
:1005B000EF92FF924B015C010E94AD026B017C0146
:1005C0000E94AD026C197D098E099F09683E734037
:1005D00081059105A8F321E0821A9108A108B108CC
:1005E00088EEC80E83E0D81EE11CF11C8114910432
:1005F000A104B10429F7FF90EF90DF90CF90BF9056
:10060000AF909F908F9008952FB7F89460916F02EC
:100610007091700280917102909172022FBF0895C3
:1006200020917E0230917F022817390771F4909152
:100630007C0280917D02981741F0E0917C02F0E00D
:10064000E25DFD4F808190E008958FEF9FEF089568
:100650000895EF92FF920F931F93CF93DF93DC01E6
:100660005C96ED90FC905D97E114F10479F481E0E3
:1006700090E013969C938E93129790E080E0DF9128
:10068000CF911F910F91FF90EF9008955196ED91AA
:10069000FC91529750968C915097982F90950FB748
:1006A0005E962C915E97122F127021FD6095F89442
:1006B0002081112319F1282B2083E7012197F1F7DD
:1006C00028E0462F50E0308160FF1AC0382B30837D
:1006D000E7012197F1F7BA0175956795215089F7E0
:1006E000112381F08081892380830FBF5C968D91D7
:1006F0009C910197F1F781E090E0C1CF2923DCCFF5
:100700003923E5CF9081892BEFCF20917E02309164
:100710007F022817390771F480917D0220917C02B5
:1007200090E0805C9F4F821B910960E470E00E9422
:10073000550D089590E080E0089520917E0230915B
:100740007F0228173907B9F490917C0280917D02CD
:10075000981789F0E0917C02F0E0E25DFD4F808126
:1007600020917C0230E02F5F3F4F2F73332720937F
:100770007C0290E008958FEF9FEF08950F931F93F1
:100780000E9404036093300370933103809332031B
:100790009093330388E293E00E949D0397FF1DC06E
:1007A0000E94040300913003109131032091320321
:1007B00030913303601B710B820B930B00912C0360
:1007C00010912D0320912E0330912F036017710794
:1007D00082079307F8F28FEF9FEF1F910F91089513
:1007E00090E080E00895CF93DF93C82FD0E0CC0F46
:1007F000DD1FFE01E45DFE4F608171818BE00E9490
:100800005002FE01E65EFE4F608171818AE00E9427
:100810005002C85FDE4F6881798189E0DF91CF9116
:100820000C94500242E050E069E971E08BE892E0FC
:100830000C948F00CF93DF93FC0101900020E9F727
:100840003197AF01481B590BBC018BE892E00E9425
:100850008F00EC010E9412048C0F9D1FDF91CF913D
:100860000895CF93DF93FC014481558160817181AC
:100870008BE892E00E948F00EC010E9412048C0F22
:100880009D1FDF91CF9108958F929F92AF92BF925B
:10089000CF92DF92EF92FF920F931F93CF93DF934C
:1008A000FC0101900020E9F731978F01081B190B1B
:1008B0007C01D0E0C0E0A9F430E020E081E0232B0F
:1008C00009F080E0DF91CF911F910F91FF90EF90A1
:1008D000DF90CF90BF90AF909F908F900895C1E030
:1008E000D0E00E94BE0397FD3AC0F701EC0FFD1F58
:1008F0002081022E000C330B8217930759F12097A9
:1009000081F34F01AE012197D4012E914D01022EAA
:10091000000C330B2817390719F0209799F7E1CF0E
:100920002097E9F2B7016F01CC1ADD0A30E020E030
:10093000DB01AD90BD01D601BD906D01AB1005C0CE
:100940002F5F3F4F2C173D0798F3C217D307D1F6FF
:10095000EA01C7CF21960C171D0719F6ADCF2FEF6F
:100960003FEFACCF0F931F93CF93DF938C01EB013D
:10097000FC01808191810097E1F0688179816115A6
:100980007105A9F0428153812C813D8142175307A3
:1009900070F00E94770F8C819D81F801958384838C
:1009A0001D821C82DF91CF911F910F9108950E94AB
:1009B0001F0E88819981F801918380838A819B81B0
:1009C000938382838C819D8195838483198218828D
:1009D0001B821A82E5CFFC0180819181009711F082
:1009E0000C941F0E0895FC0124813581232B39F4CA
:1009F00021E0FB018081882349F020E007C080814D
:100A000091810E946E0F21E0892BB9F7822F089502
:100A10000F931F93CF93DF9362E671E00E94F3047C
:100A2000882389F1D1E0D09388020E9404030091C9
:100A30002A0210912B0220912C0230912D02601B72
:100A4000710B820B930B653F714081059105B0F0EE
:100A5000C09100018C2F0E94F303CF5FC09300016F
:100A60000E94040360932A0270932B0280932C024D
:100A700090932D02C93011F4D0930001DF91CF91F2
:100A80001F910F910895109288021092000180E04A
:100A9000DF91CF911F910F910C94F3030F931F934C
:100AA000CF93DF93EC0188819981009759F02A81D7
:100AB0003B812617370730F081E0DF91CF911F91FE
:100AC0000F9108958B016F5F7F4F0E94A80E0097D2
:100AD00059F0998388831B830A832C813D81232BC2
:100AE00059F7FC011082E8CF80E0E7CFEF92FF9248
:100AF0000F931F93CF93DF93EC017B018A01BA011F
:100B00000E944E0528813981811114C021153105BB
:100B100019F0C9010E941F0E198218821D821C82C1
:100B20001B821A82CE01DF91CF911F910F91FF900E
:100B3000EF9008951D830C83B701C9010E94770FC0
:100B4000F1CFCF93DF93EC016115710571F0FB01DB
:100B500001900020E9F73197AF01461B570B0E9427
:100B60007605CE01DF91CF91089588819981009714
:100B700011F00E941F0E198218821D821C821B8296
:100B80001A82EFCFFC011182108213821282158229
:100B90001482FB0101900020E9F73197AF01461B59
:100BA000570B0C947605AF92BF92CF92DF92EF92E3
:100BB000FF920F931F93CF93DF9300D0CDB7DEB793
:100BC0008C016B017A016BE971E00E94C205F601AC
:100BD000448155816081718188E293E00E948F0099
:100BE0000E9404036701FF0CEE08FF08C60ED71E23
:100BF000E81EF91E0E9404036C157D058E059F05F5
:100C000040F588E293E00E948503892B99F388E2FE
:100C100093E00E949D0389831A82F801A480B58025
:100C2000FFEFAF1ABF0AB501C8010E944E05882325
:100C300041F3F8012081318184819581BE016F5F8C
:100C40007F4F820F931F0E94770FF801B582A48215
:100C5000D8CFC8010E943104C8010F900F90DF91D6
:100C6000CF911F910F91FF90EF90DF90CF90BF90A9
:100C7000AF900895AF92BF92CF92DF92EF92FF9222
:100C80000F931F93CF93DF935C016B017A01DB011C
:100C900014960D911C910417150720F48F2D7801DF
:100CA000042F182F6BE971E0C5010E94C205F601FF
:100CB000C481D581EC16FD06C8F40C171D0708F495
:100CC000E801D601ED91FC911197EC0FFD1F108109
:100CD00010826D917C916E0D7F1DC5010E94A10552
:100CE000F60180819181C80FD91F1883C501DF915A
:100CF000CF911F910F91FF90EF90DF90CF90BF9019
:100D0000AF9008951F920F920FB60F9211242F9358
:100D10003F934F935F936F937F938F939F93AF9383
:100D2000BF93EF93FF938091780290917902A09105
:100D30007A02B0917B02892B8A2B8B2BC1F1909187
:100D400077028091000089278093000080917802CB
:100D500090917902A0917A02B0917B02181619063F
:100D60001A061B069CF48091780290917902A0915A
:100D70007A02B0917B020197A109B10980937802B0
:100D800090937902A0937A02B0937B02FF91EF9146
:100D9000BF91AF919F918F917F916F915F914F9193
:100DA0003F912F910F900FBE0F901F90189580913B
:100DB00001010E94F301EACF1F920F920FB60F922A
:100DC00011242F933F934F935F936F937F938F9350
:100DD0009F93AF93BF93EF93FF938BE892E00E94B2
:100DE0000D01FF91EF91BF91AF919F918F917F91F5
:100DF0006F915F914F913F912F910F900FBE0F9088
:100E00001F9018951F920F920FB60F9211242F93D7
:100E10008F939F93EF93FF93E0919B02F0919C023D
:100E20008081E091A102F091A20282FD1BC090811D
:100E30008091A4028F5F8F732091A502821741F0E9
:100E4000E091A402F0E0E557FD4F958F8093A40256
:100E5000FF91EF919F918F912F910F900FBE0F9067
:100E60001F9018958081F4CF1F920F920FB60F92AA
:100E700011242F933F938F939F93AF93BF938091B0
:100E80006F0290917002A0917102B0917202309144
:100E90006E0223E0230F2D3758F50196A11DB11DD9
:100EA00020936E0280936F0290937002A093710260
:100EB000B09372028091730290917402A0917502B6
:100EC000B09176020196A11DB11D8093730290939B
:100ED0007402A0937502B0937602BF91AF919F9177
:100EE0008F913F912F910F900FBE0F901F901895EB
:100EF00026E8230F0296A11DB11DD2CF1F920F929B
:100F00000FB60F9211242F933F934F935F936F93DC
:100F10007F938F939F93AF93BF93EF93FF93E09152
:100F20007E02F0917F02309749F0A685B7858585CE
:100F3000968D91FF14C09C918923A1F4FF91EF91AC
:100F4000BF91AF919F918F917F916F915F914F91E1
:100F50003F912F910F900FBE0F901F9018959C916D
:100F6000892361F7A389B4899C9185898095892318
:100F70008C93868997890197F1F7608D718DA6858D
:100F8000B785558538E020E0CB010197F1F7822F36
:100F900090E095958795282F4C91452309F020687E
:100FA000315091F7868D81FD209580917D0290E0F2
:100FB00001968F73992730917C02381799F0A09190
:100FC0007D02B0E0A25DBD4F2C9380937D02828DA7
:100FD000938D0197F1F7A389B4898C919589892B19
:100FE0008C93ACCF868D8160868FF1CF10928E026C
:100FF00010928D0288EE93E0A0E0B0E080938F0223
:1010000090939002A0939102B093920222E431E077
:1010100030938C0220938B0225EC30E030939802C1
:101020002093970224EC30E030939A0220939902A7
:1010300020EC30E030939C0220939B0221EC30E0C6
:1010400030939E0220939D0222EC30E03093A00268
:1010500020939F0226EC30E03093A2022093A1025D
:101060001092A4021092A5021092A6021092A7025A
:1010700010922B0310922A0380932C0390932D033C
:10108000A0932E03B0932F0384E591E0909329035E
:101090008093280310923F0310923E031092410365
:1010A00010924003109243031092420310924503A2
:1010B00010924403609146036E7F6D7F60934603F8
:1010C0006695617081E0682783E00E94C50161E058
:1010D00083E00E941F02E2EBF0E0E491E09338032A
:1010E000EEE9F0E0E491F0E0EE0FFF1FEF56FF4F66
:1010F0008591949190933A038093390360E082E064
:101100000E941F028091460381FD04C061E082E0DD
:101110000E94C50182E080933403E1EBF0E0E491AA
:10112000E0933503EDE9F0E0E491F0E0EE0FFF1F0E
:10113000E957FF4F8591949190933703809336033D
:101140000895CF93DF93CDB7DEB76E970FB6F894BF
:10115000DEBF0FBECDBF789484B5826084BD84B5F8
:10116000816084BD85B5826085BD85B5816085BDA2
:1011700080916E00816080936E001092810080915A
:1011800081008260809381008091810081608093E2
:101190008100809180008160809380008091B10007
:1011A00084608093B1008091B00081608093B00032
:1011B00080917A00846080937A0080917A008260C6
:1011C00080937A0080917A00816080937A00809188
:1011D0007A00806880937A001092C10061E088E014
:1011E0000E941F0261E08CE00E941F0261E08DE01E
:1011F0000E941F0261E08BE00E941F0261E08AE012
:101200000E941F0261E089E00E941F0261E084E009
:101210000E941F0260E087E00E941F02E0919B0293
:10122000F0919C0282E08083E0919702F091980215
:101230001082E0919902F0919A028FEC80831092D3
:10124000A302E0919F02F091A00286E08083E091EA
:101250009D02F0919E02808180618083E0919D02D9
:10126000F0919E02808188608083E0919D02F091E0
:101270009E02808180688083E0919D02F0919E02B1
:1012800080818F7D808310924303109242031092DD
:1012900041031092400310923F0310923E038FE1EE
:1012A00090E09093450380934403909134039631EA
:1012B00008F047C021E030E030933F0320933E0325
:1012C0002DE130E030934103209340032DE030E0E6
:1012D00030934303209342032091680084E09830C8
:1012E00048F031E09E3008F430E081E001C0880F22
:1012F0003A95EAF7822B809368002DE630E098302B
:1013000050F02BE630E09E3030F02CE630E09631A5
:1013100010F030E020E030933C0320933B03292F72
:1013200030E0983008F025C181E001C0880F9A951F
:10133000EAF780933D038091440390914503019720
:10134000F1F78091420390914303892B49F1E09199
:101350007E02F0917F0283E0E832F80709F13097CE
:1013600039F0A389B4899C918589809589238C93D0
:10137000809146038E7F8093460310927D021092E7
:101380007C0288E293E090937F0280937E02E0915A
:101390003B03F0913C03808190913D03892B808336
:1013A00065E671E0CE0107960E94C20540ED57E068
:1013B000BE01695F7F4FCE0101960E94D305CE0129
:1013C00001960E94EB04CE0107960E94EB046EE6A4
:1013D00071E0CE0107960E94C20548EE53E0BE01BF
:1013E000695F7F4FCE0101960E94D305CE01019621
:1013F0000E94EB04CE0107960E94EB046CE771E0BB
:10140000CE0107960E94C20548EB5BE0BE01695F12
:101410007F4FCE0101960E94D305CE0101960E9416
:10142000EB04CE0107960E94EB048CE991E00E9448
:1014300044048823D1F36FE971E0CE0107960E943E
:10144000C20548EE53E0BE01695F7F4FCE010196B1
:101450000E94D305CE0101960E94EB04CE010796AF
:101460000E94EB046AEA71E0CE0107960E94C20571
:1014700048EE53E0BE01695F7F4FCE0101960E94A6
:10148000D305CE0101960E94EB04CE0107960E947F
:10149000EB0468EB71E0CE0107960E94C20548EEAE
:1014A00053E0BE01695F7F4FCE0101960E94D305D4
:1014B000CE0101960E94EB04CE0107960E94EB0438
:1014C0002AE7422E20E0522E36EB632E30E0732EB8
:1014D00042EA242E40E0342EEE24E394F12C90E0F6
:1014E000892E90E0992E88E293E00E948503892B53
:1014F00009F408C18CEC91E00E944404882309F4AB
:1015000001C168EE73E080E090E00E94D2026BE9D6
:1015100071E0CE0149960E94C20581ED91E00E94E2
:1015200044046BE971E0CE0101960E94C2050E945D
:10153000BE0397FD2BC08032910541F18F83188641
:101540000D811E810F5F1F4FB801CE0101960E94D1
:101550004E05882361F329813A818D819E81BE01E8
:10156000695F7F4F820F931F0E94770F1E830D8349
:10157000DECF9E3040F42850310981E001C0880F51
:101580002A95EAF7D6CE2E503109F7CFBE016F5F0C
:101590007F4FCE0149960E94B204CE0101960E946F
:1015A000EB04CE0149960E9431046BE971E0CE0153
:1015B00043960E94C2050D8D1E8D01151105B9F0CF
:1015C0000330110510F003E010E0E98DFA8DE00F13
:1015D000F11FD0801082698D7A8DCE0143960E94D2
:1015E000A105898D9A8D080F191FF801D0826BE92A
:1015F00071E0CE010D960E94C2056BE971E0CE014B
:1016000007960E94C20544E050E0BE01675E7F4F2E
:10161000CE0101960E943A0689819A8110E00097D6
:1016200019F00E94E20C162FCE0101960E94EB04E5
:1016300045E050E0BE01675E7F4FCE0101960E94FB
:101640003A0689819A81A12CB12C6501009719F085
:101650000E94E20C5B01CE0101960E94EB0446E081
:1016600050E0AB2811F445E050E0BE01675E7F4FCB
:10167000CE0101960E943A06BE016F5F7F4FCE01F8
:101680000D960E94B204CE0101960E94EB0463ED18
:1016900071E0CE0143960E94F304882309F4D4C07C
:1016A0001A8219821C821B821E821D826D857E8594
:1016B0006115710531F049895A89CE0101960E9460
:1016C000760562E671E0CE0101960E94F30461E0C6
:1016D000811101C060E0812F0E94C501CE010196F9
:1016E0000E94EB04CE0107960E94EB04CE010D96FA
:1016F0000E94EB04CE0143960E94EB04CE01499672
:101700000E94EB0480918802882371F062E671E008
:10171000CE0101960E94C205CE0101960E940805E5
:10172000CE0101960E94EB048091890280FDEFC0FA
:1017300010928702F2018491F3011491F101049156
:10174000002309F4E8C081110E949C01E02FF0E021
:10175000EE0FFF1FE957FF4FA591B4918C9118230D
:1017600009F4D9C0009185021091860261E08CE0F5
:101770000E94C50164E670E080E090E00E94D20221
:10178000012B41F483EF91E00E941A04F09286024B
:10179000E0928502C0908202D090830280918702FD
:1017A000882309F4DEC08091840281111CC00BE003
:1017B00010E061E08DE00E94C50164EF71E080E01F
:1017C00090E00E94D20260E08DE00E94C50164EFCB
:1017D00071E080E090E00E94D2020150110949F7C7
:1017E00081E08093840261E08DE00E94C501CD28F4
:1017F00041F48FED91E00E941A04F0928302E0928E
:1018000082020091800210918102C0908502D090E6
:101810008602F1E0CF16D10409F093C0012B41F408
:1018200081EF91E00E941A04D0928102C09280025E
:101830008114910409F457CE0E94F900882309F419
:101840004ECE0E9400004BCE67ED71E0CE01439674
:101850000E94F304882351F144E050E0BE01675E2A
:101860007F4FCE0101960E943A06BE016F5F7F4F07
:10187000CE0107960E94B204CE0101960E94EB04AD
:101880001A8219821C821B821E821D826F817885BA
:101890006115710531F04B855C85CE0101960E9482
:1018A0007605CE0101960E94080518CF6BED71E018
:1018B000CE0143960E94F304882309F413CF0091CC
:1018C000890210918A0244E050E0BE01675E7F4FBA
:1018D000CE0101960E943A06BE016F5F7F4FCE0196
:1018E00007960E94B204CE0101960E94EB0462E6C4
:1018F00071E0CE0107960E94F304882309F4F2CE2A
:101900000F5F1F4F10938A0200938902EBCE81E094
:10191000809387020FCF60E08CE00E94C50168ECE5
:1019200070E080E090E00E94D20280918502909168
:101930008602019709F02ECF10928602109285023E
:1019400029CF84E00E94F3010130110509F070CF26
:1019500080E092E00E941A041092810210928002AC
:1019600067CF84E00E94F30160E08DE00E94C50132
:10197000CA94CD2841F48DE092E00E941A0410929E
:101980008302109282021092840252CF84E591E089
:10199000909329038093280380917E0290917F0287
:1019A0008852934071F4E0913B03F0913C039081A5
:1019B00080913D0380958923808310927F0210924D
:1019C0007E0208951F93FC0199278827BC01E894A3
:1019D00011911032E9F3193010F01E30C8F31B32A8
:1019E00051F01D3249F4689406C00E94090D610F40
:1019F000711D811D911D119110531A30B0F33EF4E9
:101A000090958095709561957F4F8F4F9F4F1F9157
:101A10000895592F482F372F262F660F771F881FBD
:101A2000991F660F771F881F991F620F731F841FEE
:101A3000951F660F771F881F991F08952F923F9259
:101A40004F925F926F927F928F929F92AF92BF92CE
:101A5000CF92DF92EF92FF920F931F93CF93DF937A
:101A6000CDB7DEB7CA1BDB0B0FB6F894DEBF0FBED7
:101A7000CDBF09942A88398848885F846E847D8424
:101A80008C849B84AA84B984C884DF80EE80FD8026
:101A90000C811B81AA81B981CE0FD11D0FB6F8949C
:101AA000DEBF0FBECDBFED01089597FB072E16F4E4
:101AB000009407D077FD09D00E94690D07FC05D07E
:101AC0003EF4909581959F4F0895709561957F4F55
:101AD0000895AA1BBB1B51E107C0AA1FBB1FA61775
:101AE000B70710F0A61BB70B881F991F5A95A9F7C7
:101AF00080959095BC01CD010895EE0FFF1F0590D4
:101B0000F491E02D09940F931F93CF93DF938230CC
:101B1000910510F482E090E0E0914903F0914A03CE
:101B200030E020E0B0E0A0E0309799F421153105D5
:101B300009F44AC0281B390B24303105D8F58A81B5
:101B40009B816115710589F1FB0193838283FE01FD
:101B500011C0408151810281138148175907E0F07B
:101B60004817590799F4109761F012960C93129741
:101B700013961C933296CF01DF91CF911F910F9155
:101B800008950093490310934A03F4CF21153105BA
:101B900051F04217530738F0A901DB019A01BD014A
:101BA000DF01F801C1CFEF01F9CF90934A03809391
:101BB0004903CDCFFE01E20FF31F81939193225091
:101BC000310939832883D7CF2091470330914803C7
:101BD000232B41F4209104013091050130934803F7
:101BE0002093470320910201309103012115310513
:101BF00041F42DB73EB74091060150910701241BD7
:101C0000350BE0914703F0914803E217F307A0F486
:101C10002E1B3F0B2817390778F0AC014E5F5F4F42
:101C20002417350748F04E0F5F1F50934803409329
:101C30004703819391939FCFF0E0E0E09CCFCF9357
:101C4000DF930097E9F0FC01329713821282A09192
:101C50004903B0914A03ED0130E020E01097A1F470
:101C600020813181820F931F2091470330914803D7
:101C70002817390709F061C0F0934803E093470340
:101C8000DF91CF910895EA01CE17DF07E8F54A8189
:101C90005B819E0141155105B1F7E901FB83EA83A0
:101CA00049915991C40FD51FEC17FD0761F480814C
:101CB00091810296840F951FE9019983888382811F
:101CC00093819B838A83F0E0E0E012968D919C9152
:101CD00013970097B9F52D913C911197CD0102967C
:101CE000820F931F2091470330914803281739072B
:101CF00039F6309751F510924A0310924903B09388
:101D00004803A0934703BCCFD383C2834081518152
:101D1000840F951FC817D90761F44E5F5F4F888104
:101D20009981480F591F518340838A819B819383F6
:101D300082832115310509F0B0CFF0934A03E09377
:101D400049039ECFFD01DC01C0CF13821282D7CFA1
:101D5000B0E0A0E0EEEAFEE00C94200D8C010097CC
:101D600051F4CB010E94830D8C01C801CDB7DEB7C1
:101D7000E0E10C943C0DFC01E60FF71F9C012250A2
:101D80003109E217F30708F49DC0D901CD91DC9128
:101D90001197C617D70798F0C530D10530F3CE019B
:101DA00004978617970708F3C61BD70B2297C19392
:101DB000D1936D937C93CF010E941F0ED6CF5B0110
:101DC000AC1ABD0A4C018C0E9D1EA0914903B09126
:101DD0004A03512C412CF12CE12C109731F58091C4
:101DE0004703909148038815990509F05CC0461691
:101DF000570608F058C080910201909103010097A6
:101E000041F48DB79EB74091060150910701841BA4
:101E1000950BE817F90708F055C0F0934803E093D5
:101E20004703F90171836083A0CF8D919C91119735
:101E300012966C90129713967C901397A815B9057B
:101E400059F56C0142E0C40ED11CCA14DB0420F128
:101E5000AC014A195B09DA011296159780F062828B
:101E6000738251834083D9016D937C93E114F10413
:101E700071F0D7011396FC93EE93129776CF2296CA
:101E80008C0F9D1FF90191838083F301EFCFF093B5
:101E90004A03E093490369CF4816590608F42C0118
:101EA0007D01D3019ACFCB010E94830D7C01009765
:101EB00049F0AE01B8010E94650FC8010E941F0ED3
:101EC000870153CF10E000E050CFFB01DC0102C0DE
:101ED00001900D9241505040D8F70895FB01DC016C
:101EE0008D91019080190110D9F3990B0895FB0190
:101EF000DC0101900D920020E1F7089510E0C3E6A7
:101F0000D0E004C0FE010E947D0D2196C436D107A9
:061F1000C9F7F894FFCFB1
:101F160001FF00004B0380000000FF000000FF00EF
:101F26007D00FF00FF000000FF000000FF00FF0033
:101F36000000FF00FF000000FF00FF00000000009F
:101F460000000000FF000000FF00FF00FF0000008F
:101F560000002F018F00BC007C01ED00CB00DF00EC
:101F66000000000029038F00F003280385039D036A
:101F760010034F4E0041542B5253540D0A00415446
:101F86002B43574D4F44453D310D0A0041542B43D9
:101F9600574A41503D224D617274696E6D222C2262
:101FA6006E6E796237313535220D0A004F4B00418E
:101FB600542B43494653520D0A0041542B43495072
:101FC6004D55583D310D0A0041542B434950534558
:101FD600525645523D312C38300D0A002B4950449B
:101FE600003F006C65640064697300616C6D003BC2
:101FF60020416C61726D20757A62726F6A6F6E79BC
:10200600003B2057796B7279746F20727563680094
:102016003B205275636820757374616C003B2041E8
:102026006C61726D20726F7A62726F6A6F6E790080
:00000001FF
